:020000040800F2
:10000000A8350020150200081D21000887110008EE
:100010006B1F0008FD0D0008336C00080000000095
:100020000000000000000000000000000165000862
:100030003D0F0008000000004F080008156600088A
:100040002F0200082F0200082F0200082F020008CC
:100050002F0200082F0200082F0200082F020008BC
:100060002F0200082F0200082F0200082F020008AC
:100070002F0200082F0200082F0200082F0200089C
:100080002F0200082F0200082F0200082F0200088C
:100090002F0200082F0200082F0200082F0200087C
:1000A0002F020008916600082F0200082F020008A6
:1000B000E56600082F0200082F0200082F02000842
:1000C0002F0200082F0200082F0200082F0200084C
:1000D0002F020008216A00082F0200082F020008E2
:1000E0002F0200082F0200082F0200082F0200082C
:1000F0002F0200082F0200082F0200082F0200081C
:100100002F0200082F0200082F0200082F0200080B
:100110002F0200082F0200082F0200082F020008FB
:100120002F0200082F0200082F0200082F020008EB
:1001300000F002F800F05FF80AA090E8000C82449A
:100140008344AAF10107DA4501D100F054F8AFF277
:10015000090EBAE80F0013F0010F18BFFB1A43F0A5
:100160000103184774C1000094C100000A444FF015
:10017000000C10F8013B13F0070408BF10F8014B06
:100180001D1108BF10F8015B641E05D010F8016B4B
:10019000641E01F8016BF9D113F0080F1EBF10F8AF
:1001A000014BAD1C0C1B09D16D1E58BF01F801CBD2
:1001B000FAD505E014F8016B01F8016B6D1EF9D555
:1001C0009142D6D37047000000230024002500266A
:1001D000103A28BF78C1FBD8520728BF30C148BFAA
:1001E0000B607047642900F0F780002070471FB54E
:1001F0001FBD10B510BD00F0E3FA1146FFF7F7FF81
:1002000008F0ECFB00F001FB03B4FFF7F2FF03BCC6
:1002100006F0EBFD0948804709480047FEE7FEE786
:10022000FEE7FEE7FEE7FEE7FEE7FEE7FEE7FEE7A6
:1002300004480549054A064B70470000316600082E
:1002400031010008A82F0020A8350020A831002087
:10025000A831002072B6704762B67047EFF3108085
:1002600072B6704780F31088704730BF704720BF68
:100270007047B0FA80F0704790FAA0F0B0FA80F0C2
:10028000704790FAA0F07047704753EA020C00F0F4
:1002900069802DE9F04B4FF00006002B1FBFB3FA29
:1002A00083F503FA05F424FA05F65E4012BF1643FF
:1002B000B2FA82F502FA05F4C5F120051EBF22FA52
:1002C00005FC44EA0C04203556EA044C4FEA144479
:1002D00018BF641C4FF000084FF00009904271EB0A
:1002E000030C39D3002919BFB1FA81F701FA07F6D7
:1002F000B0FA80F700FA07F6C7F120071EBF20FA10
:1003000007FC46EA0C062037B6FBF4FCA7EB050712
:10031000103F07F01F0BCBF120060CFA0BFB2CFA59
:1003200006F644BFB3460026202FA4BF5E464FF01A
:10033000000B5BEA060C08BF4FF0010B19EB0B0931
:10034000ABFB027C48EB0608C01B06FB02CC0BFB98
:1003500003CC71EB0C01C1E70B460246414648460F
:10036000BDE8F08B13B54FF000004FF00001AFF384
:100370000080BDE81C40704710B54C1084EA53045F
:1003800004D54042C1F1000138BF491E1B4204D5CB
:100390005242C3F1000338BF5B1EFFF776FF14F033
:1003A000804F04D04042C1F1000138BF491E14F013
:1003B000004F04D05242C3F1000338BF5B1E10BD92
:1003C0000FB4044910B503AA029800F079F910BCE3
:1003D0005DF814FB4C0000202DE9F0410646002496
:1003E00010687529314616A510D0AFF3008000289B
:1003F00002DA404213A507E031688A0701D512A549
:1004000002E0490704D511A5012401E0AFF3008003
:1004100000210A2206F1240709E0B0FBF2FCB0FB40
:10042000F2F302FB1C00303078541846491C0028B7
:10043000F3D123462A463046BDE8F04100F0E7B844
:10044000000000002D0000002B0000002000000034
:100450002DE9F05F894604464FF0000ADFF824B129
:10046000FB44C0F820A02046E168884700287DD0E2
:10047000252806D0D4E901219047206A401C20623B
:10048000F1E700255F462046E168884720280646B8
:1004900007DB312E05D2B81910F8200C08B105433E
:1004A000F1E7A80701D525F00405C4F81CA0002732
:1004B000C4F818A02A2E09D0304606F08FFC38B3B5
:1004C00004EB8708303EC8F8186019E059F8041B9F
:1004D000204604EB87029161E1688847012F0646B8
:1004E00018D1E069002820DA25F020051DE0D8F8B1
:1004F000180000EB800006EB40003038C8F8180008
:100500002046E1688847064606F068FC0028EED1E0
:10051000012F0AD02E2E08D12046E16888477F1C83
:100520000646022F45F02005C4DBA069002803DA47
:10053000404245F00105A061E80701D025F0100513
:10054000A6B1A6F14100192802D8203645F400656D
:100550004A463146204625604D46FFF743FE60B1CE
:10056000012807D0ED1D25F0070000E007E000F1AD
:10057000080978E705F1040975E730467AE7206A4B
:10058000BDE8F09F1CBD000040EA010310B59B07C9
:100590000FD1042A0DD310C808C9121F9C42F8D0ED
:1005A00020BA19BA884201D9012010BD4FF0FF309E
:1005B00010BD1AB1D30703D0521C07E0002010BDB4
:1005C00010F8013B11F8014B1B1B07D110F8013B40
:1005D00011F8014B1B1B01D1921EF1D1184610BD21
:1005E00002F0FF0343EA032242EA024200F07CB831
:1005F000704770477047704710B500F095F8006875
:1006000010BD10B5044600F08FF8046010BD2DE950
:10061000F0470D4699469246044600F124080168C9
:10062000880604D5E06921F01001216000E0012076
:10063000A84201DD471B00E00027A1697A1902EBFF
:100640000900081AA0612078C00602D42046AFF342
:100650000080002608E0D4E901211AF8060090473E
:10066000206A401C761C20624E45F4DB2078C006D0
:100670000AD52046AFF3008006E0D4E901213020FE
:100680009047206A401C2062381EA7F10107F4DC65
:1006900007E0D4E9012118F805009047206A401CC2
:1006A0002062281EA5F10105F3DC2046AFF300808F
:1006B0002078000602D50220BDE8F0870120FBE784
:1006C000074B70B50D467B4400F037F804462846CA
:1006D00000F046F810B14FF0FF3070BD204670BDFD
:1006E0004B7C00004FF000020429C0F0128010F093
:1006F000030C00F03B80CCF1040CBCF1020F18BFDE
:1007000000F8012BA8BF20F8022BA1EB0C0100F090
:100710002DB85FEAC17C24BF00F8012B00F8012B43
:1007200048BF00F8012B704700487047482F002051
:1007300001694A1C02610878704700B58FB0CDE9A5
:1007400001310021059105497944CDE90310114695
:100750006846FFF77DFE0FB000BD0000E5FFFFFF1C
:10076000007B00F0800070474FF0000200B5134698
:1007700094469646203922BFA0E80C50A0E80C50C1
:10078000B1F12001BFF4F7AF090728BFA0E80C5072
:1007900048BF0CC05DF804EB890028BF40F8042B6B
:1007A00008BF704748BF20F8022B11F0804F18BFD8
:1007B00000F8012B7047000000487047482F0020C8
:1007C0007546FFF7F9FFAE4605006946534620F02F
:1007D0000700854618B020B5FFF72AFDBDE8204088
:1007E0004FF000064FF000074FF000084FF0000BED
:1007F00021F00701AC46ACE8C009ACE8C009ACE8A0
:10080000C009ACE8C0098D4670470446AFF30080CC
:100810002046FFF7F9FC00001D484FF6FF710170FC
:10082000002080F309881B48016881F308881A4872
:100830004FF08051016062B6FEE717484FF08051DB
:100840000160704714484FF080510160704772B6E4
:10085000EFF3098028B1203880E8F00F0F490968CC
:10086000086000B50E4880475DF804EB0D480E495E
:100870000A78027009480D490A680260106890E819
:10088000F00F203080F309884EF0040E62B67047F6
:1008900022ED00E0FC01002004ED00E0F401002066
:1008A000A53300088201002083010020F801002008
:1008B00070B506460D461C2D00DD70BD002404E019
:1008C000305D09F0EBFB601CC4B2AC42F8DB00BF4A
:1008D000F3E700002DE9F84F05460E461746984607
:1008E000DDE90AAB0024AA222146641C3F48425499
:1008F0002146641C425402222146641C42540022B8
:100900002146641C425400959DF801202146641C38
:1009100042549DF800202146641C425400969DF8E4
:1009200001202146641C42549DF800202046611C91
:10093000CCB22E490A5400979DF801202046611C34
:10094000CCB22A490A549DF800202046611CCCB242
:1009500026490A54CDF800809DF801202046611CEC
:10096000CCB222490A549DF800202046611CCCB22A
:100970001E490A54CDF800A09DF801202046611CB4
:10098000CCB21A490A549DF800202046611CCCB212
:1009900016490A54CDF800B09DF801202046611C8C
:1009A000CCB212490A549DF800202046611CCCB2FA
:1009B0000E490A54201FC8704FF00009002006E0BD
:1009C0000A49095C494401F0FF09411CC8B2A04230
:1009D000F6DB2046611CCCB2044901F800902146A8
:1009E0000248FFF765FFBDE8F88F0000DC12002029
:1009F0002DE9F04F85B00020049003900290E84864
:100A0000B0F900000AF03AFAE6490860E648B0F9A1
:100A100000000AF033FAE5490860E548B0F9000043
:100A20000AF02CFAE3490860E348B0F900000AF044
:100A300025FAE2490860E248B0F900000AF01EFA1F
:100A4000E0490860E048B0F900000AF017FADF4911
:100A500008604FF08E41D34800680AF03BFA07D295
:100A60004FF08D41CF4800680AF0D6F8049010E0AE
:100A70004FF08E41CB4800680AF068FB05464FF006
:100A80008D410AF0C9F804464FF07E510AF053FB3D
:100A900004904FF08E41C54800680AF01BFA07D257
:100AA0004FF08D41C14800680AF0B6F8039010E09D
:100AB0004FF08E41BD4800680AF048FB05464FF0F4
:100AC0008D410AF0A9F804464FF07E510AF033FB3D
:100AD00003904FF08E41B74800680AF0FBF907D247
:100AE0004FF08D41B34800680AF096F802900BE091
:100AF0004FF08E41AF4800680AF028FB04464FF0E3
:100B00008D410AF089F80290039809F0EBFF8246C4
:100B10008B46029809F0E6FF52465B46CDE900019C
:100B200006F002FC80460022A94B09F001FD0646B2
:100B30004FF08042A74B09F0A3FB044609F0BEFA30
:100B4000A5490860029809F0CDFFCDE9000104989D
:100B500009F0C8FF0646DDE9002306F0E5FB804604
:100B600000229B4B09F0E4FC04464FF08042994B75
:100B700009F086FB824609F0A1FA984908600498BA
:100B800009F0B0FF04460D46039809F0ABFF064696
:100B900022462B4606F0C8FB804600228C4B09F00B
:100BA000C7FC82464FF080428A4B09F069FBCDE9D1
:100BB000000109F083FA8A4908604FF08E418748A6
:100BC00000680AF087F903D2844800688349086006
:100BD0004FF08E41814800680AF07CFA05D27F48C8
:100BE000006880F000407D4908604FF08E417A48EF
:100BF00000680AF06FF903D2774800687649086008
:100C00004FF08E41744800680AF064FA05D27248C9
:100C1000006880F00040704908604FF08E417048D5
:100C200000680AF057F903D26D4800686C49086003
:100C30004FF08E416A4800680AF04CFA05D26848C5
:100C4000006880F00040664908604FF08E415B48C4
:100C500000680AF03FF910D25848006809F042FFD6
:100C600006464FF066325F4B09F00AFB81F0004107
:100C7000044609F023FA514908604FF08E414F486D
:100C800000680AF027FA12D24C48016856480AF068
:100C90005DFA804609F026FF06464FF06632514B5A
:100CA00009F0EEFA044609F009FA444908604FF0E9
:100CB0008E41444800680AF00DF910D2414800689E
:100CC00009F010FF06464FF06632464B09F0D8FA9D
:100CD00081F00041044609F0F1F93A4908604FF00B
:100CE0008E41384800680AF0F5F912D2354801689B
:100CF0003D480AF02BFA804609F0F4FE06464FF014
:100D00006632384B09F0BCFA044609F0D7F92D4990
:100D100008604FF08E412D4800680AF0DBF810D2D1
:100D20002A48006809F0DEFE06464FF066322D4B79
:100D300009F0A6FA81F00041044609F0BFF9234901
:100D400008604FF08E41214800680AF0C3F912D2C2
:100D50001E48016824480AF0F9F9804609F0C2FEED
:100D600006464FF066321F4B09F08AFA044609F036
:100D7000A5F916490860114801681748006800F095
:100D800005FA104801681548006800F02FFB0F486D
:100D900001681348006800F059FC05B0BDE8F08F09
:100DA0002000002088000020220000208C0000206D
:100DB0002400002090000020260000209400002045
:100DC00028000020980000202A0000209C0000201D
:100DD00000806640FB210940A0000020A400002004
:100DE000A80000206666304000FF7F4700B585B050
:100DF000684605F01BFB019805B000BD00BFFEE78B
:100E000010B500F01FF800F019F810BD10B500245F
:100E100000BF00BFFFF722FA044600BF00BF102149
:100E2000054801F0A4F800BF00BF2046FFF71AFAFA
:100E300000BF00BF10BD0000C813002010B5FFF7B1
:100E4000E5FF10BD10B500200249086000F00AF867
:100E500010BD000028010020014908607047000013
:100E60002801002010B5FFF7C1FF044608480068BC
:100E700040F0807006490860002006494860084636
:100E8000006840F0010008602046FFF7E5FF10BD54
:100E9000FCED00E0001000E00149486870470000E8
:100EA000001000E008B500BF1AE0684601F0C6FB7C
:100EB0000C4A0D490D4807F061FE48B90C4A0D492E
:100EC0000D4800F0BAFD0D4A0D490E4800F0DDFD59
:100ED000684601F01FFC6A4600210B4802F032F917
:100EE000E3E700001C000020180000201400002090
:100EF0002400002022000020200000202A000020E2
:100F00002800002026000020100D002000200849A5
:100F10008861886048608862486208620548C861E4
:100F200000200860C86048610348086170470000FD
:100F30009C130020000020410000A04170470000E9
:100F40000EB500BF35E002AB00221146104601F09D
:100F5000EFFF02A801F072FB07F052F91549886A09
:100F600009F050FF04B21448006809F04BFF05B2C5
:100F70001248006809F046FF06B21148006809F0FF
:100F800041FF07B20F48006809F03CFF0FFA80F8F4
:100F90000D48006809F036FF0FFA80F933463A46EB
:100FA00041464846CDE90054FFF794FC02A801F001
:100FB000B1FBC8E79C13002098000020B00000207F
:100FC000A4000020AC000020A00000202DE9F0418A
:100FD000024600250026002000230024002791F867
:100FE00003C00CF00F0591F803C00CF0100CBCF11D
:100FF000000F03D091F802C04CEA050591F800C03B
:10100000BCF1000F31D0146800202BE04FF0010C30
:101010000CFA00F3B1F800C00CEA03069E4220D19E
:1010200083004FF00F0C0CFA03F7BC4305FA03FCE6
:101030004CEA040491F803C0BCF1280F06D14FF02C
:10104000010C0CFA00FCC2F814C00AE091F803C0CD
:10105000BCF1480F05D14FF0010C0CFA00FCC2F8AE
:1010600010C0401C0828D1D31460B1F800C0BCF1F6
:10107000FF0F34DD546800202EE000F1080C4FF023
:10108000010808FA0CF3B1F800C00CEA03069E420E
:1010900021D183004FF00F0C0CFA03F7BC4305FA83
:1010A00003FC4CEA040491F803C0BCF1280F05D1FD
:1010B00000F1080C08FA0CF8C2F8148091F803C08B
:1010C000BCF1480F07D100F1080C4FF0010808FAF5
:1010D0000CF8C2F81080401C0828CED35460BDE83C
:1010E000F0810000F0B50A4600230024002100250D
:1010F00000F00046B6F1004F02D11D4EF16901E04B
:101100001B4E7168C0F3034583B200F44016B6F578
:10111000401F08D121F07061154E766826F0706688
:10112000134F7E6012E000F48016B6F5801F06D1E2
:10113000032606FA05F4A14341F0706106E0460D6E
:10114000360103FA06F6B14341F0706122B1460D53
:10115000360103FA06F6314300F00046B6F1004FBF
:1011600002D1034EF16101E0014E7160F0BD00005B
:101170000000014041617047016170470AB101619F
:1011800000E04161704700BFFEE700002DE9F0413B
:1011900005460C4684480168204609F0D7FF0746FB
:1011A000824909F0CBFE064681480168304609F0C5
:1011B000C5FC7F4908607F4841687F4809F0C6FF49
:1011C00006467C488168304609F0C0FF7B490860CC
:1011D0007848C06880F0004048607648C06880F079
:1011E000004088607648C8600868704909F0A6FE2B
:1011F000064670480168304609F0A0FC6D49086059
:101200006E494868694909F099FE0646694841688F
:10121000304609F093FC674948606849886863492B
:1012200009F08CFE064663488168304609F086FC6A
:10123000604988606149C8685C4909F07FFE0646DC
:101240005C48C168304609F079FC5A49C860584882
:101250000168284609F07AFF5A4908605A48007820
:1012600009F024FE064653480168304609F066FE40
:10127000564908605448007809F018FE06464D4863
:101280008168304609F05AFE514908604E4800789E
:1012900009F00CFE07464D480168384609F04EFE3D
:1012A00006464FF07C5109F049FC4A49086008465F
:1012B00001684648006809F0AFFC474908604548A6
:1012C00001684348006809F0A7FC444908603F48AA
:1012D0000068434908603C48007809F0E7FD06468D
:1012E00034484168304609F029FE3E4908603C48D0
:1012F00001683948006809F021FE06462D4801685A
:10130000304609F018FF2B4908603648016832481A
:10131000006809F013FE064626484168304609F089
:101320000AFF244948602E4801682C48006809F0EB
:1013300005FE06461F488168304609F0FCFE1D493F
:101340008860284801682548006809F0F7FD0646CE
:101350001848C168304609F0EEFE1649C8601948C1
:1013600001681D48006809F0E9FD0646104801685B
:10137000304609F0E3FB0E4908601248016817483F
:10138000006809F0DBFD064607480168304609F0B1
:10139000D5FB0549086008460168204609F0D6FEDD
:1013A00011490860BDE8F081BC000020A69B443CC8
:1013B000AC000020F00000206F12833A641300207C
:1013C000A69B443BC8000020B8000020D4000020A9
:1013D000D8000020DC000020E0000020E400002015
:1013E000E8000020EC000020940000202DE9F041EE
:1013F00005460C4684480168204609F0A7FE0746CA
:10140000824909F09BFD064681480168304609F093
:1014100095FB7F4908607F4841687F4809F096FE48
:1014200006467C488168304609F090FE7B4908609A
:101430007848C06880F0004048607648C06880F016
:10144000004088607648C8600868704909F076FDF9
:10145000064670480168304609F070FB6D49086027
:101460006E494868694909F069FD0646694841685E
:10147000304609F063FB67494860684988686349FA
:1014800009F05CFD064663488168304609F056FB6A
:10149000604988606149C8685C4909F04FFD0646AB
:1014A0005C48C168304609F049FB5A49C860584851
:1014B0000168284609F04AFE5A4908605A480078EF
:1014C00009F0F4FC064653480168304609F036FD41
:1014D000564908605448007809F0E8FC06464D4833
:1014E0008168304609F02AFD514908604E4800786D
:1014F00009F0DCFC07464D480168384609F01EFD3E
:1015000006464FF07C5109F019FB4A49086008462D
:1015100001684648006809F07FFB47490860454874
:1015200001684348006809F077FB444908603F4878
:101530000068434908603C48007809F0B7FC06465B
:1015400034484168304609F0F9FC3E4908603C489F
:1015500001683948006809F0F1FC06462D48016829
:10156000304609F0E8FD2B490860364801683248EA
:10157000006809F0E3FC064626484168304609F059
:10158000DAFD244948602E4801682C48006809F0BB
:10159000D5FC06461F488168304609F0CCFD1D4940
:1015A0008860284801682548006809F0C7FC06469D
:1015B0001848C168304609F0BEFD1649C860194890
:1015C00001681D48006809F0B9FC0646104801682A
:1015D000304609F0B3FA0E4908601248016817480E
:1015E000006809F0ABFC064607480168304609F080
:1015F000A5FA0549086008460168204609F0A6FDDD
:1016000011490860BDE8F081C0000020A69B443C61
:10161000B0000020F00000206F12833A6413002015
:10162000A69B443BCC000020B8000020D400002042
:10163000D8000020DC000020E0000020E4000020B2
:10164000E8000020EC000020980000202DE9F04187
:1016500005460C4684480168204609F077FD074698
:10166000824909F06BFC064681480168304609F062
:1016700065FA7F4908607F4841687F4809F066FD48
:1016800006467C488168304609F060FD7B49086069
:101690007848C06880F0004048607648C06880F0B4
:1016A000004088607648C8600868704909F046FCC8
:1016B000064670480168304609F040FA6D490860F6
:1016C0006E494868694909F039FC0646694841682D
:1016D000304609F033FA67494860684988686349C9
:1016E00009F02CFC064663488168304609F026FA6A
:1016F000604988606149C8685C4909F01FFC06467A
:101700005C48C168304609F019FA5A49C86058481F
:101710000168284609F01AFD5A4908605A480078BD
:1017200009F0C4FB064653480168304609F006FC40
:10173000564908605448007809F0B8FB06464D4801
:101740008168304609F0FAFB514908604E4800783C
:1017500009F0ACFB07464D480168384609F0EEFB3E
:1017600006464FF07C5109F0E9F94A4908600846FD
:1017700001684648006809F04FFA47490860454843
:1017800001684348006809F047FA444908603F4847
:101790000068434908603C48007809F087FB06462A
:1017A00034484168304609F0C9FB3E4908603C486E
:1017B00001683948006809F0C1FB06462D480168F8
:1017C000304609F0B8FC2B490860364801683248B9
:1017D000006809F0B3FB064626484168304609F028
:1017E000AAFC244948602E4801682C48006809F08A
:1017F000A5FB06461F488168304609F09CFC1D4940
:101800008860284801682548006809F097FB06466B
:101810001848C168304609F08EFC1649C86019485E
:1018200001681D48006809F089FB064610480168F8
:10183000304609F083F90E490860124801681748DC
:10184000006809F07BFB064607480168304609F04E
:1018500075F90549086008460168204609F076FCDC
:1018600011490860BDE8F081C4000020A69B443CFB
:10187000B4000020F00000206F12833A64130020AF
:10188000A69B443BD0000020B8000020D4000020DC
:10189000D8000020DC000020E0000020E400002050
:1018A000E8000020EC0000209C00002008B5012189
:1018B0001C2004F0ABFD0121084604F0A7FD012126
:1018C0001648FFF70FFC4FF40040ADF80000102061
:1018D0008DF8030003208DF8020069461048FFF7D9
:1018E00075FB40F60800ADF8000010208DF80300ED
:1018F00003208DF8020069460A48FFF767FB4FF4A2
:101900007050ADF8000010208DF8030003208DF812
:10191000020069460448FFF759FB08BD0002300089
:1019200000080140000C01400010014070B5044661
:101930000D46FDB134B1012C09D0022C0DD0032C81
:1019400017D110E008211C48FFF716FC11E04FF4F6
:1019500080611A48FFF710FC0BE04FF40061174854
:10196000FFF70AFC05E04FF480511448FFF704FC30
:1019700000BF1FE034B1012C09D0022C0DD0032C84
:1019800017D110E008210C48FFF7F4FB11E04FF4E9
:1019900080610A48FFF7EEFB0BE04FF40061074857
:1019A000FFF7E8FB05E04FF480510448FFF7E2FB46
:1019B00000BF00BF70BD0000000C014000100140DE
:1019C00010B500F0B3F880216B2000F07CFA6420A1
:1019D00005F0D4FD00216B2000F075FA032000F023
:1019E00030FA002000F025FA322000F04FFA0021F2
:1019F000382000F068FA00216A2000F064FA002123
:101A0000232000F060FA8021372000F05CFA752076
:101A100000F0B8F90446682C0BD101216B2000F0CE
:101A200052FA00216C2000F04EFA322000F02EFA1B
:101A300001E0012010BD0020FCE72DE9FC41044637
:101A40000D4616466B4606223B21682000F0B7F98A
:101A50000746BFB99DF801009DF8001040EA01203B
:101A600000B220809DF803009DF8021040EA01209A
:101A700000B228809DF805009DF8041040EA01207E
:101A800000B230803846BDE8FC812DE9FC410446B7
:101A90000D4616466B4606224321682000F08FF95A
:101AA0000746BFB99DF801009DF8001040EA0120EB
:101AB00000B220809DF803009DF8021040EA01204A
:101AC00000B228809DF805009DF8041040EA01202E
:101AD00000B230803846BDE8FC81000010B500201F
:101AE0000F4908600F48006820F470400D490860F5
:101AF0000846006840F44050086000200A49C1F8D8
:101B0000AC01022005F074FD0120054908600220A7
:101B100005F06EFD00200449C1F8A80110BD0000C9
:101B2000A8812142040C01400080214208B5012116
:101B3000082004F06BFC10208DF803004FF4406087
:101B4000ADF8000003208DF8020069460448FFF755
:101B50003DFA4FF440610248FFF70EFB08BD00005C
:101B6000000C014010B500200F4908600F480068C4
:101B700020F470400D4908600846006840F4405069
:101B8000086001200A49C1F8AC01022005F030FDCF
:101B9000012005490860022005F02AFD00200449C3
:101BA000C1F8A80110BD0000A8812142040C014029
:101BB0000080214270B5054600241748006820F4D3
:101BC0007040154908600846006840F4004008600D
:101BD000002616E0002011490860022005F008FDEB
:101BE00001200F49C1F8A8016006040E0B487C389B
:101BF000006808B1601CC4B2022005F0F9FC701C3A
:101C0000C6B2082EE6DB15B9FFF7ACFF01E0FFF71F
:101C100065FF204670BD0000040C0140A8812142F0
:101C20000080214270B504461348006820F47040DB
:101C3000114908600846006840F4405008600020E0
:101C40000E490860002514E0E0090C49091D0860F0
:101C50006006040E01200A49C1F8A801022005F01F
:101C6000C7FC002005490860022005F0C1FC681C83
:101C7000C5B2082DE8DB70BD040C0140A8812142EB
:101C80000080214210B50F48006820F470400D49D3
:101C900008600846006840F44050086001200A4986
:101CA00008600A49C1F8A801022005F0A1FC002043
:101CB00005490860022005F09BFC00200349C1F89B
:101CC000A80110BD040C0140AC81214200802142DA
:101CD00010B50F48006820F470400D4908600846B0
:101CE000006840F44050086000200A4908600A4932
:101CF000C1F8AC01022005F07BFC01200549086019
:101D00000549C1F8AC01022005F072FC10BD0000CD
:101D1000040C0140A88121420080214210B500241A
:101D20001548006820F470401349086008460068B0
:101D300040F400400860012010490860022005F0CE
:101D400057FC01200E49C1F8A801022005F050FC03
:101D500007E0601CC4B2FA2C03DDFFF7B9FF0120D5
:101D600010BD0648803800680028F2D10349091FD9
:101D7000086000BFF4E70000040C0140AC81214280
:101D80000080214270B50446FFF77CFFD020FFF7AA
:101D900049FFFFF7C3FF2046FFF744FFFFF7BEFFF1
:101DA000FFF770FFD120FFF73DFFFFF7B7FF0020DF
:101DB000FFF700FF0546FFF78BFF284670BD2DE9B2
:101DC000F04106460F4614461D46FFF75BFF002113
:101DD00041EA4601C8B2FFF725FFFFF79FFF20B198
:101DE000FFF776FF0120BDE8F0813846FFF71AFFC4
:101DF000FFF794FFFFF746FF012101EB4601C8B250
:101E0000FFF710FFFFF78AFF0DE0012C04D100203F
:101E1000FFF7D0FE287003E00120FFF7CBFE28700B
:101E2000601EC4B26D1C002CEFD1FFF751FF0020E3
:101E3000D9E710B50446E006010E1C2000F043F877
:101E400010BD10B50446E006010E1B2000F03BF863
:101E500010BD70B504460025BC2C01DB012510E047
:101E6000622C01DB02250CE02A2C01DB032508E0B3
:101E7000142C01DB042504E00A2C01DB052500E01D
:101E8000062529461A2000F01EF870BD70B50446DC
:101E9000B4F57A7F01DD4FF47A74042C00DA04245F
:101EA0004FF47A7090FBF4F0401EC5B22946192019
:101EB00000F009F80546264604EBD671C1F34F0041
:101EC000FFF7C7FF70BD70B505460C46FFF7DAFE99
:101ED000D020FFF7A7FEFFF721FF18B1FFF7F8FEAC
:101EE000012070BD2846FFF79DFEFFF717FF204633
:101EF000FFF798FEFFF712FF18B1FFF7E9FE012088
:101F0000EFE7FFF7E5FE0020EBE72DE9F04105469E
:101F10000E4617469846FFF7B5FE002141EA4501F7
:101F2000C8B2FFF77FFEFFF7F9FE20B1FFF7D0FE42
:101F30000120BDE8F0813046FFF774FEFFF7EEFEAA
:101F400000240CE018F80400FFF76CFEFFF7E6FE33
:101F500018B1FFF7BDFE0120EBE7601CC4B2BC4224
:101F6000F0DBFFF7B5FE0020E3E700BFFEE730B58A
:101F700005460C4622460021284600F001F830BDF7
:101F80002DE9F04105460B4694460027002402E067
:101F90003F021F43641C042CFAD3604605F003067D
:101FA000294646B1344603E001F8013B401E641C5B
:101FB00008B1042CF8D30A4601E080C2001F0428AF
:101FC000FBD2114602E001F8013B401E0028FAD185
:101FD000BDE8F08110B50446012291030348FFF7E4
:101FE000CDF82146024804F0C4FC10BD000C0140AD
:101FF0000008004010B5044600224FF48041044818
:10200000FFF7BCF82146034804F0B3FC10BD000004
:10201000000C01400008004030B589B005460C4670
:1020200001210C2004F0F2F90121084604F0EEF938
:1020300001213648FFF756F84CF23800ADF8200081
:1020400010208DF8230003208DF8220008A93048C5
:10205000FEF7BCFF012248F230012D48FFF78EF851
:102060004FF40040ADF8200010208DF8230003202D
:102070008DF8220008A92748FEF7A8FF0122D10306
:102080002448FFF77BF80121042004F0AFF9012177
:10209000092004F0BBF94FF47070ADF8200018204F
:1020A0008DF8230003208DF8220008A91848FEF7B8
:1020B0008DFFADF81850ADF814400020ADF81A00AF
:1020C000ADF8160005A9144804F058FC6020ADF8DE
:1020D00004000120ADF806000020ADF80C0001A9B5
:1020E0000D4804F089FB08210B4804F0DAFB01A934
:1020F000094804F0DFFB0821074804F02DFC01210A
:10210000054804F058FB09B030BD00000002300063
:10211000000C01400008014000080040704710B565
:102120004FF4A06000F03AF810BD000070B5002137
:1021300000230F22C47804B3154C246804F4E0642F
:10214000C4F5E064210AC1F10403CA40447804FAEA
:1021500003F184781440214309010E4C0678A155FF
:10216000047804F01F050124AC4005786D11AD0022
:1021700005F1E025C5F8004109E0047804F01F05E9
:102180000124AC40044D0678761145F8264070BD18
:102190000CED00E000E400E080E100E002490143D2
:1021A000024A1160704700000000FA050CED00E0E3
:1021B0001548164816481748174818481848194827
:1021C00019481A481A481B481B481C481C481D48F7
:1021D0001D481E481E481F481F48204820482148C7
:1021E0002148224822482348234824482448254897
:1021F0002548264826482748274828482848294867
:10220000294800BF7047000010C0000870BF0008D8
:1022100074BF000878BF00087CBF000880BF0008BA
:1022200084BF000888BF00088CBF000890BF00086A
:1022300094BF000898BF00089CBF0008A0BF00081A
:10224000A4BF0008A8BF0008ACBF0008B0BF0008CA
:10225000B4BF0008B8BF0008BCBF0008C0BF00087A
:10226000C4BF0008C8BF0008CCBF0008D0BF00082A
:10227000D4BF0008D8BF0008DCBF0008E0BF0008DA
:10228000E4BF0008E8BF0008ECBF0008F0BF00088A
:10229000F4BF0008F8BF0008FCBF000800C0000839
:1022A00004C0000808C000080CC0000810B50348AE
:1022B000006810B101480068804710BD400100204F
:1022C00070B5044600F0C2F800204849087048493B
:1022D00008704849087048490860484908604849FA
:1022E00008704849087048490870484908604849DA
:1022F00008604849086048490870484800680A2151
:10230000B0FBF1F0464908604648006858B14648BD
:10231000056845B14348066803E0761E0020286042
:102320002D1D002EF9D10020404908604049086069
:1023300040490860404908604049086040490860D9
:10234000404908604049087002F046F902F026FA58
:10235000204601F0D5FA208800B170BD204601F07A
:10236000B7FE208800B1F8E7204601F0D9FE2088AA
:1023700000B1F2E7204601F0A5FF208800B1ECE7AC
:10238000204602F059F9208800B1E6E7204602F025
:102390007DFB208800B1E0E7204602F09FFE208808
:1023A00000B1DAE7204601F0FFFD208800B1D4E754
:1023B000204601F017FC208800B1CEE7204603F04C
:1023C000FDFD208800B1C8E7204602F0CBFD208843
:1023D00000B1C2E7204603F061FE208800B1BCE7EF
:1023E00001F0B6F9FFF7E4FE00BFB6E754010020A4
:1023F000550100209C010020F4010020F80100207C
:10240000820100208301002084010020900100202F
:102410009401002098010020A4010020D0BF0008F2
:10242000A0010020A0BF00089CBF000834010020CC
:10243000380100203C010020400100204401002020
:10244000480100204C010020D20100200A4A1168F6
:10245000002002E0002204C1401C084A1268904299
:10246000F8D3054A1268054B1B6802EB8302121F62
:10247000034B1A60704700009CBF0008A0BF000813
:10248000FC01002008480078012800D07047074868
:102490000078FA2800DBF9E704480078401C03497B
:1024A000087000BFF2E70000550100205401002031
:1024B00010B500242E480078012800D010BD00BFC0
:1024C000FDF7CCFE044600BF2A48007828B900BFBB
:1024D0002046FDF7C7FE00BFF0E726480078401E03
:1024E0002449087008460078002805DD00BF204612
:1024F000FDF7B8FE00BFE1E71F480078002805DDC2
:1025000000BF2046FDF7AEFE00BFD7E702F050F84F
:102510001A4908700846007800EB4000184951F845
:102520002000184908600846006817490968884271
:1025300005D100BF2046FDF795FE00BFBEE711485C
:102540000068D0F89000401C0E490968C1F890005E
:102550000E480068401C0D4908604FF080500C493F
:10256000086000BF2046FDF77DFE00BF00BFA5E765
:1025700055010020540100209C010020830100200F
:10258000FC290020F8010020F4010020C8010020EF
:1025900004ED00E010B5002420480078002800DD9C
:1025A00010BD1F480078002800DDF9E700BFFDF7E7
:1025B00055FE044600BF01F0FBFF1A4908700846AB
:1025C000007800EB4000184951F8200017490860D6
:1025D0000846006816490968884205D100BF2046B0
:1025E000FDF740FE00BFDBE710480068D0F8900020
:1025F000401C0E490968C1F890000E480068401C54
:102600000C4908604FF080500B49086000BF20461D
:10261000FDF728FE00BF00BFC2E700005401002004
:102620009C01002083010020FC290020F8010020EB
:10263000F4010020C801002004ED00E070B504465C
:10264000002518480078002803DD46F662502080F7
:1026500070BD15480078012803D045F689602080B8
:10266000F6E712480078FA2803DB45F209202080BB
:10267000EEE700BF00BFFDF7F1FD054600BF00BF5C
:102680000A480078401C0949087002F06BF900BF45
:1026900000BF2846FDF7E6FD00BF00BF00202080F8
:1026A00000BFD5E754010020550100209C01002007
:1026B0002DE9F04105460C461646002700BF00BF35
:1026C000FDF7CCFD074600BF00BF012D03D0002061
:1026D0000D49087002E001200B49087014B10B4845
:1026E000046006E00A4800680A21B0FBF1F00749DF
:1026F000086000BF00BF3846FDF7B4FD00BF00BF53
:1027000000203080BDE8F081A4010020A00100205D
:10271000D0BF000870B50446002520480078002886
:1027200003DD46F66550208070BD1D480078012805
:1027300003D045F689602080F6E71A48007818B97A
:1027400046F664502080EFE700BF00BFFDF786FD2E
:10275000054600BF00BF13480078401E11490870AD
:102760000846007800280ADD00BF00BF2846FDF7B4
:1027700079FD00BF00BF46F663502080D4E702F029
:10278000FFF800BF00BF2846FDF76CFD00BF00BF8B
:10279000FFF700FF0020208000BFC5E754010020A4
:1027A000550100209C01002010B504461248007815
:1027B000E8B901F0FDFE114908700846007810499B
:1027C00008700E48007800EB40000E4951F82000D8
:1027D0000D490860084600680C4908600120064958
:1027E0000870FEF719F843F69920208002E045F6BC
:1027F0008A60208010BD0000550100208301002068
:1028000082010020FC290020F8010020F4010020B2
:102810002DE9F04107464FF0000800BF00BFFDF76B
:102820001DFD804600BF00BF00203D4908603D49B6
:1028300008803D4908803D4908603D4908603D49A0
:1028400008603D4908603D49088100BF00BF40461F
:10285000FDF708FD00BF00BF00BF00BFFDF7FEFC95
:10286000804600BF00BF3648046800BF00BF404636
:10287000FDF7F8FC00BF00BF21E000BF00BFFDF77F
:10288000EDFC804600BF00BF00207834E06320608C
:102890002063A061A082E0826062A062FEF7FCFA81
:1028A0002062783C04F164060020B081D4F8BC407A
:1028B00000BF00BF4046FDF7D5FC00BF00BF002CA5
:1028C000DBD100BF00BFFDF7C9FC804600BF00BFE1
:1028D0001C48056800BF00BF4046FDF7C3FC00BFB1
:1028E00000BF12E000BF00BFFDF7B8FC804600BF8C
:1028F00000BF05F120060020B081AD6900BF00BF18
:102900004046FDF7AFFC00BF00BF002DEAD103F049
:1029100031FA03F0BFFC00203880BDE8F0810000F0
:102920006801002062010020B2010020C4010020E3
:10293000D8010020E401002094010020F0290020AB
:10294000CC01002088010020F8B504460026694625
:10295000324800F0F7FCBDF8000018B1BDF80000E7
:102960002080F8BD6A460021022000F05FFDBDF81E
:10297000000018B1BDF800002080F2E700BF00BFE2
:10298000FDF76CFC064600BF00BF0020244908602C
:1029900000BF00BF3046FDF765FC00BF00BF00254B
:1029A0002048006820490968884205D91D48006808
:1029B0001D490968B0FBF1F525B91A4800680A21DC
:1029C000B0FBF1F56A460021284600F02FFD69466C
:1029D000124800F063FABDF8000018B1BDF800001D
:1029E0002080BEE700BF00BFFDF738FC064600BFF1
:1029F00000BF00200D490860094800680C490860C4
:102A000001200C49087000BF00BF3046FDF72AFCCA
:102A100000BF00BF0020208000BFA2E7842E00205E
:102A2000B4010020D0BF0008B8BF0008C4010020D6
:102A3000B8010020C001002010B50348006810B1A3
:102A400001480068804710BD440100202DE9FF4F78
:102A500087B004469046DDE91BA5DDE91496179F73
:102A60000020039087480078002805DD47F24A10CF
:102A700028800BB0BDE8F08F1CB947F2AD1028805C
:102A8000F7E7B8F1000F03D147F24F102880F0E7C5
:102A90001EB946F62F602880EBE77B480068874226
:102AA00003D246F630602880E3E71698B84203D395
:102AB00046F631602880DCE7B9F1400F03D346F2D7
:102AC00073202880D5E7B9F1000F06D16F48844202
:102AD00003D046F273202880CBE7B9F13F0F06D12F
:102AE0006B48844203D046F273202880C1E7204619
:102AF00002F004FB002028800AF0010090B10AF0E7
:102B0000020078B105960020069008E000210598A3
:102B100001600598001D05900698401C06900698D7
:102B2000B842F3D3169806EB80000490CDE9007A02
:102B300032464046049B0A9900F0A4FB0590C4F875
:102B400028800A98E0620898206284F837900598F7
:102B500020600498A06019986065199818B94D48CC
:102B60000068A06501E01998A0651A986060666227
:102B7000A763A4F83CA04FF0000B08E0002104F18B
:102B80007C0040F82B100BF1010000F0FF0BBBF1B3
:102B9000000FF3D004F16400189901F00DFB2046FA
:102BA00000F082F800BF00BF00BFFDF757FB0390A5
:102BB00000BF00BF38480078401C3749087000BF8C
:102BC00000BF0398FDF74EFB00BF00BF00BF94F8A5
:102BD000370001F00DFD204601F028FE204602F0EE
:102BE00043FA2E480088401C2C4908802C48007865
:102BF00001282DD000BF00BF00BFFDF72FFB0390C1
:102C000000BF00BF24480078401E234908700846D2
:102C10000078A0B923480088002809DD00BF00BF64
:102C20000398FDF71FFB00BF00BF01F06DFE0DE034
:102C300000BF00BF0398FDF715FB00BF06E000BF13
:102C400000BF0398FDF70EFB00BF00BF00BF10E7F9
:102C500000BF00BF00BFFDF701FB039000BF00BF36
:102C60000D480078401E0C49087000BF00BF039853
:102C7000FDF7F8FA00BF00BF00BFFFF78BFC00BFF5
:102C8000F7E6000054010020CCBF00082C290020EA
:102C900068280020A00100209C010020D001002015
:102CA000550100206001002010B50446034800686B
:102CB00018B1204601490968884710BD3401002039
:102CC00070B504460D46002667480078002803DDED
:102CD00047F24E10288070BD6448844203D147F209
:102CE0004C102880F7E76248844203D147F24D1028
:102CF0002880F0E77CB900BF00BFFDF7AFFA0646B9
:102D000000BF00BF5B48046800BF00BF3046FDF74E
:102D1000A9FA00BF00BF00BF00BF00BFFDF79EFAC9
:102D2000064600BF00BF54480078401C5249087056
:102D300000BF00BF3046FDF795FA00BF00BF00BFDF
:102D400094F8360008282DD2DFE800F004090E10B0
:102D5000080A0F11204601F0A9FD54E053E000BF1E
:102D6000204602F0EBFF4EE000BF00BF00BF204650
:102D700002F0E4FF94F83400082810D2DFE800F0F5
:102D800004070508090A0B0600BF00BF08E000BFE2
:102D900000BF00BF00BF204601F05BFB00E000BFAA
:102DA00000BF30E000BF00BF00BFFDF757FA064686
:102DB00000BF00BF30480078401E2F490870084609
:102DC0000078A0B92D480088002809DD00BF00BFA9
:102DD0003046FDF747FA00BF00BF01F095FD0DE05A
:102DE00000BF00BF3046FDF73DFA00BF06E000BF60
:102DF00000BF3046FDF736FA00BF00BF00BF46F601
:102E00002D60288067E700BF04F1640001F0B2F98B
:102E1000204600F037F8204602F03EF918480088B6
:102E2000401E17490880204602F068F9FF2084F808
:102E3000360000BF00BF00BFFDF710FA064600BF16
:102E400000BF0D480078401E0B49087000BF00BF4E
:102E50003046FDF707FA00BF00BF00BF0020288002
:102E6000FFF798FB00BF36E75401002068280020D8
:102E70002C290020F40100209C010020600100208A
:102E8000D001002010B504460348006818B1204660
:102E900001490968884710BD380100207FB5044604
:102EA0000D46002600BF00BFFDF7D8F9064600BF5B
:102EB00000BF1CB11548006884420AD100BF00BFA2
:102EC0003046FDF7CFF900BF00BF47F2571028800A
:102ED0007FBD00BF00BF3046FDF7C4F900BF00BF93
:102EE0000B48007800280BDD00200090019003467D
:102EF00002462146CDE90205064800F0ABFEE7E7B1
:102F00002946204602F072FA00BFE1E7F4010020F2
:102F1000540100205452455310B50446034800683C
:102F200018B1204601490968884710BD3C010020BE
:102F30002DE9F04780460E4614461D464FF0000925
:102F40007D480078002805DD46F2AE10288000207C
:102F5000BDE8F0871EB1B6F5004F02D100E000BF1A
:102F600004E045F6256028800020F1E700BF0CB1A1
:102F70000020206000BF00BFFDF770F9814600BF50
:102F800000BF6E480068406CA8B36C480068406C95
:102F9000401E6A490968486468480068476C1CB16B
:102FA00066480068006C2060FDF776FF6349096899
:102FB000096C401A61490968C1F8A4005F480068BB
:102FC000D0F8A8005D490968D1F8A410884207D25A
:102FD0005A480068D0F8A40058490968C1F8A80008
:102FE00000BF00BF4846FDF73DF900BF00BF00200D
:102FF00028803846ACE7FFE706F4004058B100BF30
:1030000000BF4846FDF72EF900BF00BF46F2B010E2
:10301000288000209CE74A48007800280BDD00BF8C
:1030200000BF4846FDF71EF900BF00BF46F66350DB
:10303000288000208CE700BF41480078401C4049B0
:10304000087000BF00BF4846FDF70CF900BF00BF85
:1030500000BF434607220021084601F03FF900BFA8
:1030600000BF00BFFDF7FAF8814600BF00BF34483B
:103070000078401E3249087000BF00BF4846FDF787
:10308000F1F800BF00BF00BFFFF784FA00BF00BF28
:10309000FDF7E4F8814600BF00BF2848006890F8BB
:1030A000350020B1012826D0032834D12CE0FCB112
:1030B00022480068006C2060FDF7EEFE1F49096899
:1030C000096C401A1D490968C1F8A4001B48006832
:1030D000D0F8A80019490968D1F8A410884207D28D
:1030E00016480068D0F8A40014490968C1F8A8007F
:1030F0000020288013E01CB110480068006C20609C
:1031000046F2A91028800AE00CB10020206047F2A6
:10311000D920288003E046F62E60288000BF00BF3B
:1031200006480068476C00BF00BF4846FDF79AF8A4
:1031300000BF00BF38460BE754010020F401002017
:103140009C0100202DE9FF4106460F4614461FB1A1
:10315000B7F5004F02D100E000BF06E045F625605C
:103160002080002004B0BDE8F08100BFFDF794FE90
:1031700005460D48007800280CDD0020009003462D
:1031800002463146CDE902540190084800F062FD44
:103190000020E7E723462A463946304602F0D2F9B6
:1031A00080464046DEE70000540100205453494762
:1031B0002DE9F04705460E4617461C464FF0000A1B
:1031C0002E480078002804DD47F259102080BDE821
:1031D000F0871EB946F2D5202080F8E71FB946F2E5
:1031E000D5202080F3E700BF00BFFDF737F8824607
:1031F00000BF00BF0DB922480568286868B900BF44
:1032000000BF5046FDF72EF800BF00BF0020306021
:10321000386047F252102080D9E795F83C0000F062
:10322000010068B900BF00BF5046FDF71BF800BFA2
:1032300000BF00203060386047F254102080C6E79D
:1032400000BF00BF5046FDF70DF800BF00BF4FF0B4
:103250000008D5F8249003E009F1040908F10108F9
:10326000D9F800000028F7D0C6F80080A86BA0EBC2
:10327000080038600020208000BFA8E7540100202B
:10328000F4010020F0B50446DDE9055602EB8500A7
:103290004FF0807C071F3846C7F800C0071F38462C
:1032A0003C60DFF89CC0071F3846C7F800C04FF0ED
:1032B000123C071F3846C7F800C04FF0033C071FF9
:1032C0003846C7F800C04FF0023C071F3846C7F821
:1032D00000C0071F38463B60071F384639604FF073
:1032E000113C071F3846C7F800C04FF0103C071FBD
:1032F0003846C7F800C04FF0093C071F3846C7F8EA
:1033000000C04FF0083C071F3846C7F800C04FF018
:10331000073C071F3846C7F800C04FF0063C071FA0
:103320003846C7F800C04FF0053C071F3846C7F8BD
:1033300000C04FF0043C071F3846C7F800C0F0BD7E
:103340002D5500087FB505460C461248854203D12D
:1033500047F25B1020807FBD0F48854203D147F2C2
:103360005C102080F7E70D48007800280BDD002076
:1033700000900190034602462946CDE90204084820
:1033800000F068FCE7E72146284602F03DFB00BF5D
:10339000E1E70000682800202C29002054010020CB
:1033A0005453555310B51D48006810B11B480068B0
:1033B0008047FDF771FD04461948006819490968FE
:1033C000884215D016480068D0F89800201A144991
:1033D0000968C1F8940012480068D0F89C001049B0
:1033E0000968D1F8941008440D490968C1F89C0097
:1033F0000C480068C0F8984009480068D0F8B4004C
:1034000009490968884205D20748006804490968E3
:10341000C1F8B40000200449086010BD4801002034
:10342000F4010020F8010020980100202DE9F0416E
:1034300005460E46144600273F480078002804DD64
:1034400047F275202080BDE8F0813C4800780028D4
:1034500003DD46F663502080F5E736B1022E05D035
:10346000042E0AD0082E09D101E000BF00BF1DB90B
:1034700047F27E202080E6E704E003E045F6256081
:103480002080E0E700BF00BF00BF00BFFCF7E6FE02
:10349000074600BF00BF29480078401C2749087034
:1034A00000BF00BF3846FCF7DDFE00BF00BF00BF15
:1034B00001202349096881F836002346324629460F
:1034C0001F48006802F05CFB2088A8B100BF00BF65
:1034D00000BFFCF7C3FE074600BF00BF17480078D7
:1034E000401E1649087000BF00BF3846FCF7BAFE00
:1034F00000BF00BF00BFA6E71148006801F0D6F981
:1035000000BF00BF00BFFCF7A9FE074600BF00BF19
:103510000A480078401E0949087000BF00BF3846BD
:10352000FCF7A0FE00BF00BF00BFFFF733F800208C
:10353000208000BF87E70000540100209C0100208C
:10354000F401002010B586B000F01EF8FDF7A4FCD1
:10355000044605A800210091CDE901140390074815
:10356000007800EB4000064A02EB800100231A4677
:10357000044800F06FFB06B010BD0000820100207F
:10358000FC2900205449434B10B50348006810B192
:1035900001480068804710BD4C0100202DE9F84F1C
:1035A0000446884616461F46DDE90BABDDF8289039
:1035B0000D9D0020009037480078002804DD47F278
:1035C00043302880BDE8F88F1CB945F6C3502880E9
:1035D000F8E7B9F1010F08D0B9F1020F0BD11FB90B
:1035E00047F240302880EDE709E01EB947F23F304E
:1035F0002880E7E703E045F625602880E2E700BF82
:1036000000BF00BF00BFFCF729FE009000BF00BF55
:1036100021480078401C2049087000BF00BF009876
:10362000FCF720FE00BF00BF00BF012084F82A0085
:103630001A482060C4F8048026620020A061E0617E
:103640006762A4F82890C4F808A0C4F80CB0206100
:103650006061204602F00EFD11480088401C1049B0
:10366000088000BF00BF00BFFCF7F8FD009000BF5E
:1036700000BF09480078401E0749087000BF00BF1E
:103680000098FCF7EFFD00BF00BF00BF00202880BE
:1036900000BF97E7540100209C010020544D5220A8
:1036A000E001002038B505460C4627480078002880
:1036B00004DD47F243302080002038BD25B947F2B1
:1036C000423020800020F8E720492868884204D052
:1036D00045F6C45020800020EFE76846FEF7AEFFB5
:1036E00095F82A0000B3012812D0022802D003283E
:1036F00022D10EE0284602F03FFE0021284602F0CB
:1037000061FD6846FFF706F8002020800120D4E71D
:1037100000BF0021284602F055FD6846FEF7FAFF7B
:10372000002020800120C8E76846FEF7F3FF47F23B
:103730003D3020800020C0E76846FEF7EBFF47F2EF
:10374000413020800020B8E754010020544D522021
:1037500024482548254826482648274827482848F9
:103760002848294829482A482A482B482B482C48C9
:103770002C482D482D482E482E482F482F48304899
:103780003048314831483248324833483348344869
:103790003448354835483648364837483748384839
:1037A0003848394839483A483A483B483B483C4809
:1037B0003C483D483D483E483E483F483F484048D9
:1037C00040484148414842484248434843484448A9
:1037D000444845484548464846484748474800BF4A
:1037E0007047000014C000087CC1000816C0000823
:1037F00017C0000818C000081CC0000820C000083E
:103800001DC0000848C0000849C000084AC00008A0
:103810004CC000084EC0000850C0000852C000084C
:1038200054C0000874C0000876C0000878C00008C2
:103830007AC000087CC000087EC0000880C0000874
:10384000ACC00008ADC00008AEC00008B0C00008A1
:10385000B2C00008B3C00008B4C00008B6C0000879
:10386000B8C00008BAC00008BCC00008BEC000084C
:10387000C0C00008F0C00008F1C00008F2C0000895
:10388000F3C00008F4C00008F6C00008F8C0000843
:1038900020C1000821C1000822C1000823C100087E
:1038A00024C1000826C1000828C100082CC1000856
:1038B0002DC100082EC100082FC1000830C100082A
:1038C00031C1000832C1000833C1000834C100080A
:1038D00036C1000837C1000838C100083AC10008E5
:1038E0003CC100083DC1000840C1000874C1000887
:1038F00075C1000876C1000878C100087AC10008C7
:103900000021034A1160034A1180018070470000C2
:103910006C010020700100202DE9F04F85B00446B5
:10392000894692469B46DDF838800020009000BF13
:1039300000BFFCF793FC009000BF00BFBAF1000F7E
:103940000AD0BAF1010F0DD0BAF5004F05D06FF4CF
:103950000040504460B906E000BF206A40EA090018
:10396000206214E000BF206A20EA090020620EE015
:1039700000BF00BF0098FCF775FC00BF00BF45F614
:103980002560A8F80000002005B0BDE8F08F00BF5A
:10399000C4F824B004F1080001900198008958B9D6
:1039A00000BF00BF0098FCF75DFC00BF00BF002017
:1039B000A8F80000206AE7E700BF61480078401CD3
:1039C0005F49087000BF00BF0098FCF74BFC00BFC8
:1039D00000BF00BF01980768BD687FE0786802906B
:1039E00095F8880000F00F0003900398012821D07B
:1039F00002282ED0042802D0082836D10EE0206AF2
:103A0000D5F8801000EA0106D5F88000B04204D154
:103A10005A463146284600F097F859E0206AD5F812
:103A2000801000EA010626B15A463146284600F0C9
:103A30008BF84DE0D5F88000216A20EA0106D5F820
:103A40008000B04204D15A463146284600F07CF846
:103A50003EE0D5F88000216A20EA010626B15A46E8
:103A60003146284600F070F832E000BF00BF00BFCA
:103A7000FCF7F4FB009000BF00BF31480078401E07
:103A80002F49087008460078A0B92E480088002801
:103A900009DD00BF00BF0098FCF7E4FB00BF00BFDA
:103AA00000F032FF0DE000BF00BF0098FCF7DAFB2A
:103AB00000BF06E000BF00BF0098FCF7D3FB00BFCB
:103AC00000BF00BF43F6FF20A8F8000000205BE71E
:103AD00000BF029F0FB1BD6800E00025002D7FF4FC
:103AE0007DAF00BF00BF00BFFCF7B8FB009000BF78
:103AF00000BF13480078401E1149087000BF00BF86
:103B00000098FCF7AFFB00BF00BF00BF0AF4004005
:103B100008B9FEF73FFD00BF00BFFCF79FFB009018
:103B200000BF00BF206A049000BF00BF0098FCF7F0
:103B300099FB00BF00BF0020A8F80000049823E70D
:103B40009C0100206001002070B504460E46154619
:103B500034342665002060702070E560A078343C25
:103B6000082816D2DFE800F004050809070610113E
:103B700000BF00BF00BF0DE000BF204601F028FCE1
:103B8000002084F8360005E000BF042084F83600E9
:103B900000E000BF00BF204600F05BFC70BD0000ED
:103BA000002400BF19E000BF00BFFCF757FB04462C
:103BB00000BF00BF09480068401C08490860084869
:103BC0000068401C0649086000BF00BF2046FCF7A3
:103BD00049FB00BF00BFFEF769FBE4E7500100208E
:103BE000B401002010B58AB0044600200E490860D8
:103BF0000B2000210591CDE90704069108460B49E9
:103C000009680B4A12680B4B1B68CDE90132CDE9FC
:103C100003103F200023084A08A100900C48FEF73B
:103C200015FF0AB010BD00005001002078BF000849
:103C300074BF000870BF0008A13B000875432F4FF8
:103C4000532D4949492049646C65205461736B00C8
:103C5000682800202DE9F84F04460D4616461F46F9
:103C6000DDE90BABDDF82890DDF834800020009012
:103C700000BF00BFFCF7F2FA009000BF00BF2B4866
:103C800000882B49098888423EDA28480088401C71
:103C900026490880274800880988884203DA234893
:103CA000008824490880244800680460224800688D
:103CB000856021480068C6601F48006807821E486A
:103CC0000068C0F814901C480068A0F818A01A48B2
:103CD0000068C0F81CB018480068406816490860C1
:103CE000012016490881164808604860002000F04D
:103CF0007FFC1448007818B1124800781249087007
:103D00000020A8F8000008E010480088401C0F4977
:103D1000088044F25360A8F8000000BF00BF00987C
:103D2000FCF7A0FA00BF00BFBDE8F88F60010020DB
:103D300084BF00086201002058010020FC290020F7
:103D40002C29002082010020840100206401002031
:103D50003EB5594800680068584A811A904279D0A7
:103D60000FDC5749084400283ED056490844A8B102
:103D700055490844002860D05449084400286AD1B5
:103D80003FE053480844002850D0524908440028D6
:103D900062D0514908440028F1D110E002A8464DF4
:103DA00000902D68EB69444D2D682A8B424D2D689B
:103DB0006969414D2D68A868FFF7AEFD7AE002A958
:103DC0003D480068C0693C4DCDE900012D682B8B52
:103DD000394D2D682A8A384D2D68E968364D2D6891
:103DE000A86800F035FC65E0334B1B68DA69324B9C
:103DF0001B68198B304B1B68986802AB00F052FEB1
:103E000058E002A92C480068C0692B4DCDE900019B
:103E10002D682B8B284D2D682A8A274D2D68E9683F
:103E2000254D2D68A86801F0CDF943E022490968C5
:103E3000886802A901F0DAFA3CE01F4B1B68DA69D6
:103E40001D4B1B68198B1C4B1B68986802AB01F05B
:103E500079FB2FE007E02CE017490968886802A980
:103E600001F0D2FD26E01D49097801EB41011C4A11
:103E700002EB810000F0A2FD0F48006802AB0021B8
:103E8000C269184801F05EFB17480068401E1649D9
:103E900008600846006858B9144800680860FCF7D4
:103EA000FBFF044602AB22460021114801F04AFB09
:103EB00000E000BF00BF3EBD5C0100205449434B01
:103EC000ADBAB2BE0DF90BFAF2F8F7FF0006F6FF35
:103ED00000F7FDF700FFEFFF03FE0FFE8401002057
:103EE000FC290020C02D0020F0010020EC01002062
:103EF000842E0020002700BF4CE0002648E000BFD1
:103F000000BFFCF7ABF9074600BF00BF224800889E
:103F100088B90020214908810860486000F07AFBD8
:103F200000BF00BF3846FCF79DF900BF00BFFEF799
:103F300031FB01262CE000BF00BF3846FCF792F9A8
:103F400000BF00BFFCF7A8FF0546FFF701FFFCF725
:103F5000A3FF441B12480068A04201D2104804602D
:103F600000BF00BFFCF77AF9074600BF00BF0D484D
:103F7000006840680B49086007480088401E0649F1
:103F8000088000BF00BF3846FCF76CF900BF00BFD7
:103F9000002EB4D0B1E7000060010020FC29002011
:103FA000680100205C010020F0B589B005460020C2
:103FB000314908803148006820B944F252602880B5
:103FC00009B0F0BD2E480088022803DA44F254609C
:103FD0002880F5E700202B49086028480468264619
:103FE000203600270CE0284820600020A060E06018
:103FF000208260612083666020342036781C87B27E
:104000001F4800888742EEDB203C1C48066866603B
:104010001E4806601E48066000201E4908801E4992
:1040200008801E48006818B944F255602880C7E728
:104030001B4800681B490968884203D244F2566055
:104040002880BDE7032000210591CDE907050691F1
:1040500013480068144A1268104B1B68CDE903012D
:10406000CDE9013200910B46104A11A11748FEF725
:10407000EDFC00BFA4E700006401002080BF000841
:1040800084BF0008680100204E4F4E4558010020B3
:104090005C01002060010020620100208CBF00084C
:1040A00094BF0008CCBF000890BF0008F53E000890
:1040B00075432F4F532D494949204953522051757B
:1040C000657565205461736B000000002C29002089
:1040D0000021034A1160034A1180018070470000EB
:1040E000740100207801002070B502460B4610468E
:1040F000114610315E1EB5B2002408E001600026B2
:1041000046600681C66010301031661CB4B2AC4205
:10411000F4DB0026066046600681C66070BD0000C4
:1041200010B504461048006818B945F21E7020808A
:1041300010BD0E48008818B945F21D702080F7E7C1
:104140000A48018808480068FFF7CEFF0648006863
:10415000074908600548008888800020C8800881D9
:10416000208000BFE4E70000B0BF0008A8BF00083F
:10417000F029002010B5014648894B89002B17DD36
:104180000A680C4B1B6813600A4C4B68236023467B
:10419000DB884C891B1B074CE38023469B884C899A
:1041A0002344044CA38000234B818B810B604B6024
:1041B00010BD0000F029002001810022428182818F
:1041C00002604260704700002DE9F0410D46DDE9D4
:1041D0000674B0F80AC0B0F80880C44505DB46F2A2
:1041E000935CA4F800C0BDE8F081DFF8D4C0BCF84F
:1041F00004C0BCF1000F04D145F21D7CA4F800C03E
:10420000F1E7DFF8BCC0DCF80010DFF8B480D1F8CB
:1042100000C0C8F800C0C446BCF804C0ACF1010C32
:10422000A8F804C0C446BCF806C00CF1010CA8F8FC
:1042300006C0C446BCF808C0B8F80680C44507DA12
:10424000DFF87CC0BCF806C0DFF87480A8F808C0AE
:10425000B0F80AC0BCF1000F06D1016041604FF018
:10426000010CA0F80AC017E003F0100CBCF1000F1D
:1042700007D1066831604FF0000CC1F800C0016042
:1042800004E0D0F804C0C1F800C04160B0F80AC032
:104290000CF1010CA0F80AC0B0F80CC0B0F80A800C
:1042A000C44503DAB0F80AC0A0F80CC04D600A811A
:1042B000CF604FF0000CA4F800C000BF93E70000EF
:1042C000F02900200021034A1160034A1180018077
:1042D000704700007C010020800100202DE9F041A2
:1042E00005460C4616461F461548006880F834609F
:1042F00000201349096881F83500394610480068E4
:1043000000F096FE6CB104F10808EC600122294629
:104310000B48006800F016F82946404600F066F8A1
:1043200006E0002006490968C8870549096808634E
:1043300003480168204600F019F8BDE8F08100004C
:10434000F401002010B5C287016300230AE00024B5
:104350004C600C600C614C610C83CC618860203136
:104360005C1CA3B29342F2DB10BD000030B548B133
:104370004568C1F8C05000F10804226893681D6ABE
:10438000C56113E091F83450022D02D0072D08D1F9
:1043900003E007A5C1F8C05007E007A5C1F8C05069
:1043A00003E008A5C1F8C05000BF00BF30BD000049
:1043B0005461736B205100005461736B2053656D21
:1043C000000000002000000030B507A5C1F8C05073
:1043D00000F1080422681AB193681D6AC56101E002
:1043E00001A5C56130BD000020000000F0B58E6859
:1043F00096F8375007893FB90127078100274F609A
:104400000F600160416023E007897F1C078102681B
:1044100006E0946894F83770AF4200DD02E052681D
:10442000002AF6D100BF32B900274F6043680B6005
:10443000596041600CE017682FB9116000270F60C8
:104440004A60016004E013680B604A6059601160C3
:10445000F0BD2DE9F0410446256BE68F0AE0D5F862
:104460000C8008F108072946384600F00AF8203584
:10447000701E86B2002EF2DC0020E0872063BDE8CB
:10448000F08110B50489012C03D10024046044603C
:1044900011E00C6824B94A680024146002600AE044
:1044A0004C6824B90B6800245C60436003E00B682F
:1044B0004A685A6013600489641E048100244C60B9
:1044C0000C6010BD2DE9F84306460C461746984689
:1044D000089D94F83600082850D2DFE800F0040563
:1044E000080906072B2C00BF00BF00BF47E000BF34
:1044F00094F83400032807D143463A462146304613
:10450000009500F03FF803E0E765A4F860802564BB
:1045100036B12046FFF79DFF21463046FFF754FF96
:10452000204600F055FF00203434A070607004F87D
:10453000340924E000BF94F83400032807D143462F
:104540003A4621463046009500F01CF803E0E76546
:10455000A4F860802564204601F0F0FB36B12046C7
:10456000FFF777FF21463046FFF72EFF0420343453
:10457000A0700020607004F8340900E000BF00BFA4
:10458000BDE8F883F0B50446059E086BCD8F0AE0C0
:10459000C768A74204D1046142610383C66104E095
:1045A00020306F1EBDB2002DF2DC00BFF0BD000058
:1045B00070B50025074C03E005F12000C5B2241DAD
:1045C00020680028F8D02068FBF753FE2844C5B2C5
:1045D000284670BD2C010020002004E00021034A81
:1045E00042F82010401C0228F8D370472C0100200C
:1045F00030B5420900F01F030121C3F11F04A1409F
:10460000034C54F822400C43014D45F8224030BD84
:104610002C01002030B5420900F01F030121C3F135
:104620001F04A140034C54F822408C43014D45F82F
:10463000224030BD2C0100200021034A1160034AB2
:104640001180018070470000880100208C0100204B
:104650002DE9F04F85B007468A4693461C46002058
:10466000029000BF00BF00BFFBF7F8FD029000BF43
:1046700000BF48480078401C4649087000BF00BF92
:104680000298FBF7EFFD00BF00BF00BF07F108066F
:104690003089002842D104F0100010B94FF0000812
:1046A00001E04FF01008DDE90E0143465A46CDE91E
:1046B0000001514607F12000FFF786FD00BF00BF53
:1046C00000BFFBF7CBFD029000BF00BF3148007870
:1046D000401E3049087008460078A0B92E4800886E
:1046E000002809DD00BF00BF0298FBF7BBFD00BF3B
:1046F00000BF00F009F90DE000BF00BF0298FBF712
:10470000B1FD00BF06E000BF00BF0298FBF7AAFDA5
:1047100000BF00BF00BF05B0BDE8F08F04F400701B
:1047200008B1358900E00125D6F8009011E0D9F8EC
:1047300008000390D9F8040004900E985B46524696
:10474000009038460399FFF7BDFEDDF81090681E13
:1047500085B2002DEBD100BF00BF00BFFBF77EFD8F
:10476000029000BF00BF0B480078401E0949087046
:1047700000BF00BF0298FBF775FD00BF00BF00BF80
:1047800004F4004008B9FDF705FF00210F980180EF
:1047900000BFC0E79C0100206001002000210AE06A
:1047A00001EB4102054B03EB820000220281026013
:1047B00042604A1CD1B24029F2D37047FC29002044
:1047C00010B5044694F83700FFF712FF94F837004D
:1047D00005490978884203D1204600F027F802E015
:1047E000204600F003F810BD8201002010B590F8BB
:1047F000373003EB43030C4C04EB83010B893BB9CB
:1048000001230B810023C36003610860486009E055
:104810000B895B1C0B810B68C360002303610A6872
:104820001061086010BD0000FC29002010B590F850
:10483000373003EB43030B4C04EB83010B893BB98B
:1048400001230B810023C36003610860486008E016
:104850000B895B1C0B810023C3604A680261D06036
:10486000486010BDFC29002010B501460C8924B118
:10487000012C03D0022C0CD101E000BF14E0086829
:104880004A6802610024C4601461D0600A60486014
:104890000AE008684A68C36800241C61C4600261B9
:1048A000D0600B60486000BF00BF10BD2DE9F04133
:1048B000054695F8370000EB4000124901EB8004F3
:1048C0002F69EE6887B946B90020208120606060BA
:1048D00095F83700FFF79EFE0EE02089401E2081EC
:1048E00000203061266007E02089401E2081FE60A4
:1048F0000EB9676000E0376100202861E860BDE81C
:10490000F0810000FC29002010B5002400BFFBF757
:10491000A5FC044600BF00200D4908700D480E4953
:10492000086008460068D0F89000401C0968C1F88B
:1049300090000A480068401C084908604FF0805009
:104940000749086000BF2046FBF78CFC00BF10BD84
:10495000830100202C290020F8010020C80100203C
:1049600004ED00E010B504480078012803D1FCF7FD
:1049700093FA0249086010BD9C01002090010020BC
:1049800010B50A48007880B9FCF786FA084909682A
:10499000441A08480068A04201D20648046006484C
:1049A0000068A04201D20448046010BD9C010020B0
:1049B00090010020940100209801002070B5054668
:1049C00000262E480078012800D070BD00BF00BF2F
:1049D000FBF744FC064600BF00BF2C683CB900BF93
:1049E00000BF3046FBF73EFC00BF00BFEDE72448A8
:1049F000844207D100BF00BF3046FBF733FC00BF45
:104A000000BFE2E7A06D10B1A06D401EA065A06DD3
:104A100038B100BF00BF3046FBF724FC00BF00BF29
:104A2000D3E72889022807DA00BF00BF3046FBF72A
:104A300019FC00BF00BFC8E712480078002807DD56
:104A400000BF00BF3046FBF70DFC00BF00BFBCE756
:104A50002846FFF709FF2C68606D18B90A480068FE
:104A6000A06501E0606DA06500BF00BF3046FBF7A8
:104A7000F9FB00BF00BF00BFA7E70000A4010020B2
:104A8000682800209C010020A00100200021034A8A
:104A90001160034A1180018070470000A8010020C6
:104AA000AC0100202DE9FF5F0446884691461D4673
:104AB0000020019000BF00BFFBF7D0FB019000BFBA
:104AC00000BF04F10807388900284FD104200128CD
:104AD00004D0022814D0042834D123E0206AFF280F
:104AE0000DD100BF00BF0198FBF7BCFB00BF00BFAA
:104AF00046F6C5502880002004B0BDE8F09F22E0B3
:104B00004FF6FF71206A88420BD100BF00BF0198A9
:104B1000FBF7A8FB00BF00BF46F6C5502880002069
:104B2000EAE710E0206A401C58B900BF00BF0198B6
:104B3000FBF798FB00BF00BF46F6C5502880002059
:104B4000DAE700E000BF00BF206A401C2062D4F812
:104B500020A0C4F8249000BF00BF0198FBF782FB9F
:104B600000BF00BF002028805046C5E700BF254891
:104B70000078401C2349087000BF00BF0198FBF774
:104B800071FB00BF00BF00BF08F4007008B13E8990
:104B900000E00126D7F800B011E0DBF80800029031
:104BA000DBF80400039000231A46CDF8009020465D
:104BB0000299FFF787FCDDF80CB0701E86B2002E5C
:104BC000EBD1D4F820A000BF00BF00BFFBF746FB2D
:104BD000019000BF00BF0B480078401E09490870D3
:104BE00000BF00BF0198FBF73DFB00BF00BF00BF47
:104BF00008F4004008B9FDF7CDFC0020288050469D
:104C00007AE700009C01002086B00020009000BFE1
:104C100006E0C3490968480001AA0021FEF706FC26
:104C2000C04800780128F4D101A8FDF7F1FD002764
:104C3000BD480068BA490968884205D9BA48006881
:104C4000B7490968B0FBF1F727B9B74800680A21EE
:104C5000B0FBF1F762E1FCF71FF9804600BF00BF2F
:104C6000FBF7FCFA009000BF00BFB0480068B049F5
:104C700008600020AD49086000BF00BF0098FBF746
:104C8000F1FA00BF00BFAB480068A9490968884233
:104C900048D9A8480068A849884205D242F2107055
:104CA00003900120029023E0A2480068A3498842B3
:104CB00005D24FF47A7003900A20029018E09D48C4
:104CC00000689F49884203D26420039002900FE05D
:104CD000984800689B49884205D20A2003904FF407
:104CE0007A70029004E00120039042F2107002906A
:104CF000904801680298B1FBF0FA8D490398096861
:104D00004843B0FBFAF042F21071081A8E4908804D
:104D10008E4800880988884208DA8B4800888B49C9
:104D2000088003E042F2107087490880FDF784FE96
:104D3000002500BF00BFFBF791FA009000BF00BF45
:104D40008348046800BF00BF0098FBF78BFA00BFE0
:104D500000BF5AE000BF00BF00BFFBF77FFA009022
:104D600000BF00BF7B480078401C7A49087000BF34
:104D700000BF0098FBF776FA00BF00BF00BF54F8F1
:104D80009C0F6060002044F89C0900BF00BF00BF7A
:104D9000FBF764FA009000BF00BF6E480078401E29
:104DA0006C49087008460078A0B96B480088002854
:104DB00009DD00BF00BF0098FBF754FA00BF00BF39
:104DC000FFF7A2FD0DE000BF00BF0098FBF74AFA15
:104DD00000BF06E000BF00BF0098FBF743FA00BF2A
:104DE00000BF00BFD4F8A000054400BF00BFFBF720
:104DF00035FA009000BF00BFD4F8BC4000BF00BF30
:104E00000098FBF72FFA00BF00BF002CA2D145B3DA
:104E10004948854205D242F2107005904FF0010BCF
:104E20001BE04648854205D24FF47A7005904FF05A
:104E30000A0B12E04248854203D264200590834663
:104E40000BE04048854204D20A2005904FF47A7B5B
:104E500003E00120059042F2107BB5FBFBF00490CB
:104E600003E0002005900120049000BF00BFFBF785
:104E7000F5F9009000BF00BF3548046800BF00BFCF
:104E80000098FBF7EFF900BF00BF2BE0D4F8A000BB
:104E9000059948430499B0FBF1F086B242F21070D4
:104EA000864200D90646A4F88C60B4F88E00B04261
:104EB00001DAA4F88E6001AB04F1AC02111D2046AA
:104EC000FEF776F900BF00BFFBF7C8F9009000BFFE
:104ED00000BFD4F8BC4000BF00BF0098FBF7C2F988
:104EE00000BF00BF002CD1D11C480078012805D19B
:104EF00000201A49087001A8FDF78AFCFBF7CCFFD7
:104F0000A0EB080916480068484502D21448C0F8CA
:104F1000009001AA00213846FEF788FA9BE60000BF
:104F2000B8BF0008C0010020D0BF0008B4010020B5
:104F3000BC010020B8010020801A060000093D00D5
:104F4000005A62020084D717B0010020B20100208D
:104F5000CC0100209C01002060010020AE01002057
:104F6000C401002010B58AB0044600201F49086023
:104F70001F4908601F4908601F4908701F490870D1
:104F80001F48006820B946F62B6020800AB010BD8B
:104F90001C4800681C490968884203D246F62C6008
:104FA0002080F3E7194800783F2803D346F62A60AB
:104FB0002080EBE7032000210591CDE9070406914D
:104FC000084610490968124A12680D4B1B68CDE962
:104FD0000132CDE903100D48007800230D4A0EA1DF
:104FE00000901248FDF732FD00BFCFE7B40100206A
:104FF000BC010020B8010020C0010020AE0100204B
:10500000BCBF0008C4BF0008CCBF0008B4BF000884
:10501000C0BF0008094C000875432F4F532D494964
:10502000492053746174205461736B00FC2C002080
:1050300038B504460D4685B16B4602222946204606
:1050400000F09EFDBDF8000018B9032084F836007A
:1050500006E0022084F8360002E0022084F83600E0
:105060002046FFF723FC38BD0021C0F8B8100949DD
:10507000096819B90021C0F8BC1007E005490968A2
:10508000C0F8BC1003490968C1F8B80001490860BC
:1050900070470000CC010020D0F8B820D0F8BC1038
:1050A0004AB90D4B196011B10023C1F8B830002383
:1050B000C0F8BC300FE029B90023C2F8BC30C0F8FA
:1050C000B83008E0C2F8BC10C1F8B8200023C0F81E
:1050D000BC30C0F8B8307047CC0100200021044A31
:1050E0001160044A1180044A116001807047000079
:1050F000CC010020D0010020C801002070B504467A
:1051000000202060A0606060E06020616061A061BC
:10511000E06129A0206200206062A062E062206459
:10512000E065A4F86000002104F16400FFF744F892
:10513000002044F8740F6060E060A0822061743C3D
:10514000002506E0002104F17C0040F82510681CD1
:10515000C5B2002DF6D0002034342061206760678E
:10516000606084F85600E067A06720814FF000403F
:1051700060610020A061E06120626062A4F85800D4
:10518000A4F85A00E0652066FBF786FE06466666D0
:105190000020A066C4F8800020706070A0704020DD
:1051A000E0700020C4F88400C4F8880004A0C4F8AB
:1051B0008C00343C70BD00003F5461736B000000F4
:1051C000200000002DE9FC4704460F469046994612
:1051D000DDE90A654FF0000A00BF00BF00BFFBF722
:1051E0003DF8824600BF00BF76480078401C7549F4
:1051F000087000BF00BF5046FBF734F800BF00BF87
:1052000000BF0CB9704804680020288094F836006C
:1052100008287DD2DFE800F004053E3F0607404144
:1052200000BF00BF00BF4B464246394604F1640050
:10523000CDE90065FEF7C8FF00BF00BF00BFFBF768
:105240000DF8824600BF00BF5E480078401E5D49F1
:10525000087008460078A0B95C480088002809DD7D
:1052600000BF00BF5046FAF7FDFF00BF00BFFFF7C9
:105270004BFB0DE000BF00BF5046FAF7F3FF00BF45
:1052800006E000BF00BF5046FAF7ECFF00BF00BFCA
:1052900000BF93E000BF00BF00BF94F834000228B5
:1052A00021D143463A46214600200096FFF70AF9ED
:1052B00000BF00BF00BFFAF7D1FF824600BF00BFAA
:1052C00040480078401E3F49087000BF00BF50466C
:1052D000FAF7C8FF00BF00BF00BF09F4004090BB51
:1052E000FDF758F938E04B464246394604F1640070
:1052F000CDE90065FEF768FF00BF00BF00BFFAF709
:10530000ADFF824600BF00BF2E480078401E00E07F
:1053100023E02C49087008460078A8B92B4800887B
:10532000002809DD00BF00BF5046FAF79BFF00BF11
:1053300000BFFFF7E9FA0EE000BF00BF5046FAF7E2
:1053400091FF00BF07E007E000BF00BF5046FAF73B
:1053500089FF00BF00BF00BF30E000BF00BF00BF3B
:10536000FAF77CFF824600BF00BF16480078401E57
:105370001449087008460078A0B91448008800282D
:1053800009DD00BF00BF5046FAF76CFF00BF00BF49
:10539000FFF7BAFA0DE000BF00BF5046FAF762FF10
:1053A00000BF06E000BF00BF5046FAF75BFF00BF3A
:1053B00000BF00BF46F62D60288000BF00BFBDE8DB
:1053C000FC8700009C010020F40100206001002007
:1053D00010B50446204600F0B1FC94F8360000F009
:1053E000040010B92046FFF7EBF910BD70B5044674
:1053F0000D46002600BF00BFFAF730FF064600BF8B
:1054000000BF0020288094F8360008287BD2DFE80F
:1054100000F0040506071243556700BF00BF00BF38
:1054200000BF00BF3046FAF71DFF00BF00BF47F2C4
:105430005310288072E000BF3B480078401C3A4976
:10544000087000BF00BF3046FAF70CFF00BF00BF76
:1054500000BF14F88A0F401E207014F88A0928B97A
:10546000002084F836002046FFF7B2FF00BF00BFDF
:1054700000BFFAF7F3FE064600BF00BF2A480078D7
:10548000401E2949087000BF00BF3046FAF7EAFE07
:1054900000BF00BF00BF41E014F88A0F401E20701B
:1054A00014F88A0910B9012084F8360000BF00BF43
:1054B0003046FAF7D7FE00BF00BF2FE014F88A0F7E
:1054C000401E207014F88A0910B9022084F83600B2
:1054D00000BF00BF3046FAF7C5FE00BF00BF1DE0A9
:1054E00014F88A0F401E207014F88A0910B903209E
:1054F00084F8360000BF00BF3046FAF7B3FE00BFA5
:1055000000BF0BE0FFE700BF00BF3046FAF7AAFE7E
:1055100000BF00BF46F62D60288070BD00BFFDF7BC
:1055200039F800BFF9E700009C01002008B50448E5
:105530000068FDF7F1FC69460020FDF7C1FB08BDDE
:10554000F40100202DE9F8430446884617461D461D
:105550004FF0000900BF00BF00BFFAF77FFE814691
:1055600000BF00BFFE480078401CFD49087000BF26
:1055700000BF4846FAF776FE00BF00BF00BF0CB977
:10558000F848046827640020288094F8360008282A
:1055900071D2DFE800F00405EBEC0607EDEE00BF8A
:1055A00000BF00BF0420012804D0022839D00428FD
:1055B0006FD170E0606CFF2832D100BF00BF00BF28
:1055C000FAF74CFE814600BF00BFE5480078401E58
:1055D000E349087008460078A0B9E348008800282D
:1055E00009DD00BF00BF4846FAF73CFE00BF00BF20
:1055F000FFF78AF90DE000BF00BF4846FAF732FE18
:1056000000BF06E000BF00BF4846FAF72BFE00BF10
:1056100000BF00BF46F6C55028800020BDE8F883D3
:1056200071E04FF6FF71606C884233D100BF00BF5C
:1056300000BFFAF713FE814600BF00BFC8480078DC
:10564000401EC749087008460078A8B9C6480088B7
:10565000002809DD00BF00BF4846FAF703FE00BF7F
:1056600000BFFFF751F90EE000BF00BF4846FAF750
:10567000F9FD00BF07E08DE100BF00BF4846FAF723
:10568000F1FD00BF00BF00BF46F6C55028800020D6
:10569000C4E737E037E0606C401C88BB00BF00BF48
:1056A00000BFFAF7DBFD814600BF00BFAC480078C1
:1056B000401EAB49087008460078A0B9AA48008887
:1056C000002809DD00BF00BF4846FAF7CBFD00BF48
:1056D00000BFFFF719F90DE000BF00BF4846FAF719
:1056E000C1FD00BF06E000BF00BF4846FAF7BAFDA3
:1056F00000BF00BF00BF46F6C550288000208DE7E0
:10570000FFE700E000BF00BF606C401C6064666C97
:1057100000BF00BF00BFFAF7A1FD814600BF00BF78
:105720008F480078401E8E49087008460078A0B95E
:105730008D480088002809DD00BF00BF4846FAF701
:1057400091FD00BF00BFFFF7DFF80DE000BF00BF15
:105750004846FAF787FD00BF06E000BF00BF484695
:10576000FAF780FD00BF00BF00BF45E100BF00BFEA
:1057700000BF94F83400072823D100231A4621469D
:1057800018460097FEF79EFE666C00BF00BF00BF84
:10579000FAF764FD814600BF00BF71480078401EE3
:1057A0006F49087000BF00BF4846FAF75BFD00BFB5
:1057B00000BF00BF08F40040002801D1FCF7EAFE5A
:1057C000E7E00420012804D0022838D004286ED154
:1057D0006EE0606CFF2831D100BF00BF00BFFAF758
:1057E0003DFD814600BF00BF5D480078401E5C491A
:1057F000087008460078A0B95B480088002809DDD9
:1058000000BF00BF4846FAF72DFD00BF00BFFFF7FD
:105810007BF80DE000BF00BF4846FAF723FD00BF4C
:1058200006E000BF00BF4846FAF71CFD00BF00BFFE
:1058300000BF46F6C55028800020EFE670E04FF626
:10584000FF71606C884231D100BF00BF00BFFAF722
:1058500005FD814600BF00BF41480078401E404919
:10586000087008460078A0B93F480088002809DD84
:1058700000BF00BF4846FAF7F5FC00BF00BFFFF7C6
:1058800043F80DE000BF00BF4846FAF7EBFC00BF4D
:1058900006E000BF00BF4846FAF7E4FC00BF00BFC7
:1058A00000BF46F6C55028800020B7E638E036E055
:1058B000606C401C88BB00BF00BF00BFFAF7CEFC85
:1058C000814600BF00BF26480078401E244908706A
:1058D00008460078A0B924480088002809DD00BFE8
:1058E00000BF4846FAF7BEFC00BF00BFFFF70CF848
:1058F0000DE000BF00BF4846FAF7B4FC00BF06E069
:1059000000BF00BF4846FAF7ADFC00BF00BF00BFB4
:1059100046F6C5502880002080E6FFE700E000BF83
:1059200000BF606C401C6064666C00BF00BF00BFBD
:10593000FAF794FC814600BF00BF09480078401E7A
:105940000749087008460078D8B907480088002839
:1059500010DD00BF00BF4846FAF784FC00BF05E039
:105960009C010020F40100206001002000BFFEF730
:10597000CBFF0DE000BF00BF4846FAF773FC00BF45
:1059800006E000BF00BF4846FAF76CFC00BF00BF4E
:1059900000BF31E000BF00BF00BFFAF75FFC8146E7
:1059A00000BF00BF16480078401E15490870084621
:1059B0000078A0B913480088002809DD00BF00BFA7
:1059C0004846FAF74FFC00BF00BFFEF79DFF0DE011
:1059D00000BF00BF4846FAF745FC00BF06E000BF25
:1059E00000BF4846FAF73EFC00BF00BF00BF46F6C6
:1059F0002D602880002600BF00BF30460EE6000064
:105A00009C0100206001002070B504460D46002670
:105A100000BF00BFFAF722FC064600BF00BF0CB96A
:105A20004B4804684A48006884420ED149480078CF
:105A300000280ADD00BF00BF3046FAF713FC00BFA4
:105A400000BF46F66350288070BD0020288094F87F
:105A5000360008286CD2DFE800F004313F4D5B5C73
:105A60005D5E00BF3B480078401C3A49087000BFAB
:105A700000BF3046FAF7F6FB00BF00BF00BF0420AE
:105A800084F83600012084F88A002046FEF70EFFD5
:105A900000BF00BF00BFFAF7E1FB064600BF00BF32
:105AA0002C480078401E2B49087000BF00BF3046CC
:105AB000FAF7D8FB00BF00BF00BF44E0052084F820
:105AC0003600012084F88A0000BF00BF3046FAF794
:105AD000C9FB00BF00BF36E0062084F83600012075
